{
  "_format": "hh-sol-artifact-1",
  "contractName": "SimpleNFT",
  "sourceName": "contracts/share.sol",
  "abi": [
    {
      "inputs": [],
      "stateMutability": "nonpayable",
      "type": "constructor"
    },
    {
      "anonymous": false,
      "inputs": [
        {
          "indexed": true,
          "internalType": "address",
          "name": "owner",
          "type": "address"
        },
        {
          "indexed": true,
          "internalType": "address",
          "name": "approved",
          "type": "address"
        },
        {
          "indexed": true,
          "internalType": "uint256",
          "name": "tokenId",
          "type": "uint256"
        }
      ],
      "name": "Approval",
      "type": "event"
    },
    {
      "anonymous": false,
      "inputs": [
        {
          "indexed": true,
          "internalType": "address",
          "name": "owner",
          "type": "address"
        },
        {
          "indexed": true,
          "internalType": "address",
          "name": "operator",
          "type": "address"
        },
        {
          "indexed": false,
          "internalType": "bool",
          "name": "approved",
          "type": "bool"
        }
      ],
      "name": "ApprovalForAll",
      "type": "event"
    },
    {
      "anonymous": false,
      "inputs": [
        {
          "indexed": true,
          "internalType": "address",
          "name": "from",
          "type": "address"
        },
        {
          "indexed": true,
          "internalType": "address",
          "name": "to",
          "type": "address"
        },
        {
          "indexed": true,
          "internalType": "uint256",
          "name": "tokenId",
          "type": "uint256"
        }
      ],
      "name": "Transfer",
      "type": "event"
    },
    {
      "inputs": [
        {
          "internalType": "address",
          "name": "to",
          "type": "address"
        },
        {
          "internalType": "uint256",
          "name": "tokenId",
          "type": "uint256"
        }
      ],
      "name": "approve",
      "outputs": [],
      "stateMutability": "nonpayable",
      "type": "function"
    },
    {
      "inputs": [
        {
          "internalType": "address",
          "name": "owner",
          "type": "address"
        }
      ],
      "name": "balanceOf",
      "outputs": [
        {
          "internalType": "uint256",
          "name": "",
          "type": "uint256"
        }
      ],
      "stateMutability": "view",
      "type": "function"
    },
    {
      "inputs": [
        {
          "internalType": "uint256",
          "name": "tokenId",
          "type": "uint256"
        }
      ],
      "name": "getApproved",
      "outputs": [
        {
          "internalType": "address",
          "name": "",
          "type": "address"
        }
      ],
      "stateMutability": "view",
      "type": "function"
    },
    {
      "inputs": [
        {
          "internalType": "address",
          "name": "owner",
          "type": "address"
        },
        {
          "internalType": "address",
          "name": "operator",
          "type": "address"
        }
      ],
      "name": "isApprovedForAll",
      "outputs": [
        {
          "internalType": "bool",
          "name": "",
          "type": "bool"
        }
      ],
      "stateMutability": "view",
      "type": "function"
    },
    {
      "inputs": [
        {
          "internalType": "address",
          "name": "forUser",
          "type": "address"
        },
        {
          "internalType": "string",
          "name": "tokenURI",
          "type": "string"
        }
      ],
      "name": "mintTokens",
      "outputs": [
        {
          "internalType": "uint256",
          "name": "",
          "type": "uint256"
        }
      ],
      "stateMutability": "nonpayable",
      "type": "function"
    },
    {
      "inputs": [],
      "name": "name",
      "outputs": [
        {
          "internalType": "string",
          "name": "",
          "type": "string"
        }
      ],
      "stateMutability": "view",
      "type": "function"
    },
    {
      "inputs": [
        {
          "internalType": "uint256",
          "name": "tokenId",
          "type": "uint256"
        }
      ],
      "name": "ownerOf",
      "outputs": [
        {
          "internalType": "address",
          "name": "",
          "type": "address"
        }
      ],
      "stateMutability": "view",
      "type": "function"
    },
    {
      "inputs": [
        {
          "internalType": "address",
          "name": "from",
          "type": "address"
        },
        {
          "internalType": "address",
          "name": "to",
          "type": "address"
        },
        {
          "internalType": "uint256",
          "name": "tokenId",
          "type": "uint256"
        }
      ],
      "name": "safeTransferFrom",
      "outputs": [],
      "stateMutability": "nonpayable",
      "type": "function"
    },
    {
      "inputs": [
        {
          "internalType": "address",
          "name": "from",
          "type": "address"
        },
        {
          "internalType": "address",
          "name": "to",
          "type": "address"
        },
        {
          "internalType": "uint256",
          "name": "tokenId",
          "type": "uint256"
        },
        {
          "internalType": "bytes",
          "name": "data",
          "type": "bytes"
        }
      ],
      "name": "safeTransferFrom",
      "outputs": [],
      "stateMutability": "nonpayable",
      "type": "function"
    },
    {
      "inputs": [
        {
          "internalType": "address",
          "name": "operator",
          "type": "address"
        },
        {
          "internalType": "bool",
          "name": "approved",
          "type": "bool"
        }
      ],
      "name": "setApprovalForAll",
      "outputs": [],
      "stateMutability": "nonpayable",
      "type": "function"
    },
    {
      "inputs": [
        {
          "internalType": "bytes4",
          "name": "interfaceId",
          "type": "bytes4"
        }
      ],
      "name": "supportsInterface",
      "outputs": [
        {
          "internalType": "bool",
          "name": "",
          "type": "bool"
        }
      ],
      "stateMutability": "view",
      "type": "function"
    },
    {
      "inputs": [],
      "name": "symbol",
      "outputs": [
        {
          "internalType": "string",
          "name": "",
          "type": "string"
        }
      ],
      "stateMutability": "view",
      "type": "function"
    },
    {
      "inputs": [
        {
          "internalType": "uint256",
          "name": "tokenId",
          "type": "uint256"
        }
      ],
      "name": "tokenURI",
      "outputs": [
        {
          "internalType": "string",
          "name": "",
          "type": "string"
        }
      ],
      "stateMutability": "view",
      "type": "function"
    },
    {
      "inputs": [],
      "name": "totalMinted",
      "outputs": [
        {
          "internalType": "uint256",
          "name": "",
          "type": "uint256"
        }
      ],
      "stateMutability": "view",
      "type": "function"
    },
    {
      "inputs": [
        {
          "internalType": "address",
          "name": "from",
          "type": "address"
        },
        {
          "internalType": "address",
          "name": "to",
          "type": "address"
        },
        {
          "internalType": "uint256",
          "name": "tokenId",
          "type": "uint256"
        }
      ],
      "name": "transferFrom",
      "outputs": [],
      "stateMutability": "nonpayable",
      "type": "function"
    }
  ],
  "bytecode": "0x60806040523480156200001157600080fd5b506040805180820182526009815268436c6f76657220465360b81b60208083019182528351808501909452600384526243465360e81b9084015281519192916200005e916000916200007d565b508051620000749060019060208401906200007d565b50505062000160565b8280546200008b9062000123565b90600052602060002090601f016020900481019282620000af5760008555620000fa565b82601f10620000ca57805160ff1916838001178555620000fa565b82800160010185558215620000fa579182015b82811115620000fa578251825591602001919060010190620000dd565b50620001089291506200010c565b5090565b5b808211156200010857600081556001016200010d565b600181811c908216806200013857607f821691505b602082108114156200015a57634e487b7160e01b600052602260045260246000fd5b50919050565b6115c980620001706000396000f3fe608060405234801561001057600080fd5b50600436106100f55760003560e01c80636352211e11610097578063a2309ff811610066578063a2309ff8146101ff578063b88d4fde14610207578063c87b56dd1461021a578063e985e9c51461022d57600080fd5b80636352211e146101be57806370a08231146101d157806395d89b41146101e4578063a22cb465146101ec57600080fd5b8063095ea7b3116100d3578063095ea7b31461016257806323b872dd1461017757806342842e0e1461018a578063510a3ea91461019d57600080fd5b806301ffc9a7146100fa57806306fdde0314610122578063081812fc14610137575b600080fd5b61010d6101083660046112ae565b610269565b60405190151581526020015b60405180910390f35b61012a6102bb565b6040516101199190611399565b61014a6101453660046112e8565b61034d565b6040516001600160a01b039091168152602001610119565b610175610170366004611284565b610374565b005b61017561018536600461112e565b61048f565b61017561019836600461112e565b6104c0565b6101b06101ab366004611222565b6104db565b604051908152602001610119565b61014a6101cc3660046112e8565b610512565b6101b06101df3660046110e0565b610572565b61012a6105f8565b6101756101fa3660046111e6565b610607565b6101b0610616565b61017561021536600461116a565b610626565b61012a6102283660046112e8565b61065e565b61010d61023b3660046110fb565b6001600160a01b03918216600090815260056020908152604080832093909416825291909152205460ff1690565b60006001600160e01b031982166380ac58cd60e01b148061029a57506001600160e01b03198216635b5e139f60e01b145b806102b557506301ffc9a760e01b6001600160e01b03198316145b92915050565b6060600080546102ca906114bb565b80601f01602080910402602001604051908101604052809291908181526020018280546102f6906114bb565b80156103435780601f1061031857610100808354040283529160200191610343565b820191906000526020600020905b81548152906001019060200180831161032657829003601f168201915b5050505050905090565b60006103588261076f565b506000908152600460205260409020546001600160a01b031690565b600061037f82610512565b9050806001600160a01b0316836001600160a01b031614156103f25760405162461bcd60e51b815260206004820152602160248201527f4552433732313a20617070726f76616c20746f2063757272656e74206f776e656044820152603960f91b60648201526084015b60405180910390fd5b336001600160a01b038216148061040e575061040e813361023b565b6104805760405162461bcd60e51b815260206004820152603e60248201527f4552433732313a20617070726f76652063616c6c6572206973206e6f7420746f60448201527f6b656e206f776e6572206e6f7220617070726f76656420666f7220616c6c000060648201526084016103e9565b61048a83836107d1565b505050565b610499338261083f565b6104b55760405162461bcd60e51b81526004016103e9906113fe565b61048a8383836108bd565b61048a83838360405180602001604052806000815250610626565b6000806104e760075490565b90506104f38482610a59565b6104fd8184610b9b565b61050b600780546001019055565b9392505050565b6000818152600260205260408120546001600160a01b0316806102b55760405162461bcd60e51b8152602060048201526018602482015277115490cdcc8c4e881a5b9d985b1a59081d1bdad95b88125160421b60448201526064016103e9565b60006001600160a01b0382166105dc5760405162461bcd60e51b815260206004820152602960248201527f4552433732313a2061646472657373207a65726f206973206e6f7420612076616044820152683634b21037bbb732b960b91b60648201526084016103e9565b506001600160a01b031660009081526003602052604090205490565b6060600180546102ca906114bb565b610612338383610c35565b5050565b600061062160075490565b905090565b610630338361083f565b61064c5760405162461bcd60e51b81526004016103e9906113fe565b61065884848484610d04565b50505050565b60606106698261076f565b60008281526006602052604081208054610682906114bb565b80601f01602080910402602001604051908101604052809291908181526020018280546106ae906114bb565b80156106fb5780601f106106d0576101008083540402835291602001916106fb565b820191906000526020600020905b8154815290600101906020018083116106de57829003601f168201915b50505050509050600061071960408051602081019091526000815290565b905080516000141561072c575092915050565b81511561075e57808260405160200161074692919061132d565b60405160208183030381529060405292505050919050565b61076784610d37565b949350505050565b6000818152600260205260409020546001600160a01b03166107ce5760405162461bcd60e51b8152602060048201526018602482015277115490cdcc8c4e881a5b9d985b1a59081d1bdad95b88125160421b60448201526064016103e9565b50565b600081815260046020526040902080546001600160a01b0319166001600160a01b038416908117909155819061080682610512565b6001600160a01b03167f8c5be1e5ebec7d5bd14f71427d1e84f3dd0314c0f7b2291e5b200ac8c7c3b92560405160405180910390a45050565b60008061084b83610512565b9050806001600160a01b0316846001600160a01b0316148061089257506001600160a01b0380821660009081526005602090815260408083209388168352929052205460ff165b806107675750836001600160a01b03166108ab8461034d565b6001600160a01b031614949350505050565b826001600160a01b03166108d082610512565b6001600160a01b0316146109345760405162461bcd60e51b815260206004820152602560248201527f4552433732313a207472616e736665722066726f6d20696e636f72726563742060448201526437bbb732b960d91b60648201526084016103e9565b6001600160a01b0382166109965760405162461bcd60e51b8152602060048201526024808201527f4552433732313a207472616e7366657220746f20746865207a65726f206164646044820152637265737360e01b60648201526084016103e9565b6109a16000826107d1565b6001600160a01b03831660009081526003602052604081208054600192906109ca908490611478565b90915550506001600160a01b03821660009081526003602052604081208054600192906109f890849061144c565b909155505060008181526002602052604080822080546001600160a01b0319166001600160a01b0386811691821790925591518493918716917fddf252ad1be2c89b69c2b068fc378daa952ba7f163c4a11628f55a4df523b3ef91a4505050565b6001600160a01b038216610aaf5760405162461bcd60e51b815260206004820181905260248201527f4552433732313a206d696e7420746f20746865207a65726f206164647265737360448201526064016103e9565b6000818152600260205260409020546001600160a01b031615610b145760405162461bcd60e51b815260206004820152601c60248201527f4552433732313a20746f6b656e20616c7265616479206d696e7465640000000060448201526064016103e9565b6001600160a01b0382166000908152600360205260408120805460019290610b3d90849061144c565b909155505060008181526002602052604080822080546001600160a01b0319166001600160a01b03861690811790915590518392907fddf252ad1be2c89b69c2b068fc378daa952ba7f163c4a11628f55a4df523b3ef908290a45050565b6000828152600260205260409020546001600160a01b0316610c165760405162461bcd60e51b815260206004820152602e60248201527f45524337323155524953746f726167653a2055524920736574206f66206e6f6e60448201526d32bc34b9ba32b73a103a37b5b2b760911b60648201526084016103e9565b6000828152600660209081526040909120825161048a92840190610fb5565b816001600160a01b0316836001600160a01b03161415610c975760405162461bcd60e51b815260206004820152601960248201527f4552433732313a20617070726f766520746f2063616c6c65720000000000000060448201526064016103e9565b6001600160a01b03838116600081815260056020908152604080832094871680845294825291829020805460ff191686151590811790915591519182527f17307eab39ab6107e8899845ad3d59bd9653f200f220920489ca2b5937696c31910160405180910390a3505050565b610d0f8484846108bd565b610d1b84848484610daa565b6106585760405162461bcd60e51b81526004016103e9906113ac565b6060610d428261076f565b6000610d5960408051602081019091526000815290565b90506000815111610d79576040518060200160405280600081525061050b565b80610d8384610eb7565b604051602001610d9492919061132d565b6040516020818303038152906040529392505050565b60006001600160a01b0384163b15610eac57604051630a85bd0160e11b81526001600160a01b0385169063150b7a0290610dee90339089908890889060040161135c565b602060405180830381600087803b158015610e0857600080fd5b505af1925050508015610e38575060408051601f3d908101601f19168201909252610e35918101906112cb565b60015b610e92573d808015610e66576040519150601f19603f3d011682016040523d82523d6000602084013e610e6b565b606091505b508051610e8a5760405162461bcd60e51b81526004016103e9906113ac565b805181602001fd5b6001600160e01b031916630a85bd0160e11b149050610767565b506001949350505050565b606081610edb5750506040805180820190915260018152600360fc1b602082015290565b8160005b8115610f055780610eef816114f6565b9150610efe9050600a83611464565b9150610edf565b60008167ffffffffffffffff811115610f2057610f20611567565b6040519080825280601f01601f191660200182016040528015610f4a576020820181803683370190505b5090505b841561076757610f5f600183611478565b9150610f6c600a86611511565b610f7790603061144c565b60f81b818381518110610f8c57610f8c611551565b60200101906001600160f81b031916908160001a905350610fae600a86611464565b9450610f4e565b828054610fc1906114bb565b90600052602060002090601f016020900481019282610fe35760008555611029565b82601f10610ffc57805160ff1916838001178555611029565b82800160010185558215611029579182015b8281111561102957825182559160200191906001019061100e565b50611035929150611039565b5090565b5b80821115611035576000815560010161103a565b600067ffffffffffffffff8084111561106957611069611567565b604051601f8501601f19908116603f0116810190828211818310171561109157611091611567565b816040528093508581528686860111156110aa57600080fd5b858560208301376000602087830101525050509392505050565b80356001600160a01b03811681146110db57600080fd5b919050565b6000602082840312156110f257600080fd5b61050b826110c4565b6000806040838503121561110e57600080fd5b611117836110c4565b9150611125602084016110c4565b90509250929050565b60008060006060848603121561114357600080fd5b61114c846110c4565b925061115a602085016110c4565b9150604084013590509250925092565b6000806000806080858703121561118057600080fd5b611189856110c4565b9350611197602086016110c4565b925060408501359150606085013567ffffffffffffffff8111156111ba57600080fd5b8501601f810187136111cb57600080fd5b6111da8782356020840161104e565b91505092959194509250565b600080604083850312156111f957600080fd5b611202836110c4565b91506020830135801515811461121757600080fd5b809150509250929050565b6000806040838503121561123557600080fd5b61123e836110c4565b9150602083013567ffffffffffffffff81111561125a57600080fd5b8301601f8101851361126b57600080fd5b61127a8582356020840161104e565b9150509250929050565b6000806040838503121561129757600080fd5b6112a0836110c4565b946020939093013593505050565b6000602082840312156112c057600080fd5b813561050b8161157d565b6000602082840312156112dd57600080fd5b815161050b8161157d565b6000602082840312156112fa57600080fd5b5035919050565b6000815180845261131981602086016020860161148f565b601f01601f19169290920160200192915050565b6000835161133f81846020880161148f565b83519083019061135381836020880161148f565b01949350505050565b6001600160a01b038581168252841660208201526040810183905260806060820181905260009061138f90830184611301565b9695505050505050565b60208152600061050b6020830184611301565b60208082526032908201527f4552433732313a207472616e7366657220746f206e6f6e20455243373231526560408201527131b2b4bb32b91034b6b83632b6b2b73a32b960711b606082015260800190565b6020808252602e908201527f4552433732313a2063616c6c6572206973206e6f7420746f6b656e206f776e6560408201526d1c881b9bdc88185c1c1c9bdd995960921b606082015260800190565b6000821982111561145f5761145f611525565b500190565b6000826114735761147361153b565b500490565b60008282101561148a5761148a611525565b500390565b60005b838110156114aa578181015183820152602001611492565b838111156106585750506000910152565b600181811c908216806114cf57607f821691505b602082108114156114f057634e487b7160e01b600052602260045260246000fd5b50919050565b600060001982141561150a5761150a611525565b5060010190565b6000826115205761152061153b565b500690565b634e487b7160e01b600052601160045260246000fd5b634e487b7160e01b600052601260045260246000fd5b634e487b7160e01b600052603260045260246000fd5b634e487b7160e01b600052604160045260246000fd5b6001600160e01b0319811681146107ce57600080fdfea26469706673582212203aa73888ae2d49aecc0baa9c40c431d5a9ff1fce9757bb93132be405e519823f64736f6c63430008070033",
  "linkReferences": {},
  "deployedLinkReferences": {}
}