{
  "_format": "hh-sol-artifact-1",
  "contractName": "Greeter",
  "sourceName": "contracts/Greeter.sol",
  "abi": [
    {
      "inputs": [
        {
          "internalType": "string",
          "name": "_greeting",
          "type": "string"
        }
      ],
      "stateMutability": "nonpayable",
      "type": "constructor"
    },
    {
      "inputs": [],
      "name": "balance",
      "outputs": [
        {
          "internalType": "uint256",
          "name": "",
          "type": "uint256"
        }
      ],
      "stateMutability": "view",
      "type": "function"
    },
    {
      "inputs": [],
      "name": "greet",
      "outputs": [
        {
          "internalType": "string",
          "name": "",
          "type": "string"
        }
      ],
      "stateMutability": "view",
      "type": "function"
    },
    {
      "inputs": [],
      "name": "paidgreeting",
      "outputs": [
        {
          "internalType": "string",
          "name": "",
          "type": "string"
        }
      ],
      "stateMutability": "view",
      "type": "function"
    },
    {
      "inputs": [],
      "name": "paymetogreet",
      "outputs": [],
      "stateMutability": "payable",
      "type": "function"
    },
    {
      "inputs": [
        {
          "internalType": "string",
          "name": "_greeting",
          "type": "string"
        }
      ],
      "name": "setGreeting",
      "outputs": [],
      "stateMutability": "nonpayable",
      "type": "function"
    },
    {
      "stateMutability": "payable",
      "type": "receive"
    }
  ],
  "bytecode": "0x60a06040819052600060808190526200001b916002916200010b565b503480156200002957600080fd5b5060405162000b0638038062000b068339810160408190526200004c91620001b1565b6200007c60405180606001604052806022815260200162000ae460229139826200009960201b6200033a1760201c565b8051620000919060009060208401906200010b565b50506200034f565b620000e68282604051602401620000b292919062000297565b60408051601f198184030181529190526020810180516001600160e01b03908116634b5c427760e01b17909152620000ea16565b5050565b80516a636f6e736f6c652e6c6f67602083016000808483855afa5050505050565b8280546200011990620002fc565b90600052602060002090601f0160209004810192826200013d576000855562000188565b82601f106200015857805160ff191683800117855562000188565b8280016001018555821562000188579182015b82811115620001885782518255916020019190600101906200016b565b50620001969291506200019a565b5090565b5b808211156200019657600081556001016200019b565b600060208284031215620001c457600080fd5b81516001600160401b0380821115620001dc57600080fd5b818401915084601f830112620001f157600080fd5b81518181111562000206576200020662000339565b604051601f8201601f19908116603f0116810190838211818310171562000231576200023162000339565b816040528281528760208487010111156200024b57600080fd5b6200025e836020830160208801620002c9565b979650505050505050565b6000815180845262000283816020860160208601620002c9565b601f01601f19169290920160200192915050565b604081526000620002ac604083018562000269565b8281036020840152620002c0818562000269565b95945050505050565b60005b83811015620002e6578181015183820152602001620002cc565b83811115620002f6576000848401525b50505050565b600181811c908216806200031157607f821691505b602082108114156200033357634e487b7160e01b600052602260045260246000fd5b50919050565b634e487b7160e01b600052604160045260246000fd5b610785806200035f6000396000f3fe60806040526004361061004e5760003560e01c806323c11aac1461005e578063a413686214610068578063b69ef8a814610088578063cfae3217146100b1578063de4c69ef146100d357600080fd5b366100595747600155005b600080fd5b6100666100e8565b005b34801561007457600080fd5b50610066610083366004610552565b610156565b34801561009457600080fd5b5061009e60015481565b6040519081526020015b60405180910390f35b3480156100bd57600080fd5b506100c661021a565b6040516100a89190610650565b3480156100df57600080fd5b506100c66102ac565b6100f347343361037f565b341561011a5760006002908054610109906106db565b61011492919061043e565b50610150565b60408051808201909152600d8082526c12481b9bc819dbc819dc99595d609a1b602090920191825261014e916002916104c9565b505b47600155565b61020360405180606001604052806023815260200161072d602391396000805461017f906106db565b80601f01602080910402602001604051908101604052809291908181526020018280546101ab906106db565b80156101f85780601f106101cd576101008083540402835291602001916101f8565b820191906000526020600020905b8154815290600101906020018083116101db57829003601f168201915b5050505050836103da565b80516102169060009060208401906104c9565b5050565b606060008054610229906106db565b80601f0160208091040260200160405190810160405280929190818152602001828054610255906106db565b80156102a25780601f10610277576101008083540402835291602001916102a2565b820191906000526020600020905b81548152906001019060200180831161028557829003601f168201915b5050505050905090565b600280546102b9906106db565b80601f01602080910402602001604051908101604052809291908181526020018280546102e5906106db565b80156103325780601f1061030757610100808354040283529160200191610332565b820191906000526020600020905b81548152906001019060200180831161031557829003601f168201915b505050505081565b610216828260405160240161035092919061066a565b60408051601f198184030181529190526020810180516001600160e01b0316634b5c427760e01b17905261041d565b60405160248101849052604481018390526001600160a01b03821660648201526103d59060840160408051601f198184030181529190526020810180516001600160e01b031663be33491b60e01b17905261041d565b505050565b6103d58383836040516024016103f293929190610698565b60408051601f198184030181529190526020810180516001600160e01b0316632ced7cef60e01b1790525b80516a636f6e736f6c652e6c6f67602083016000808483855afa5050505050565b82805461044a906106db565b90600052602060002090601f01602090048101928261046c57600085556104b9565b82601f1061047d57805485556104b9565b828001600101855582156104b957600052602060002091601f016020900482015b828111156104b957825482559160010191906001019061049e565b506104c592915061053d565b5090565b8280546104d5906106db565b90600052602060002090601f0160209004810192826104f757600085556104b9565b82601f1061051057805160ff19168380011785556104b9565b828001600101855582156104b9579182015b828111156104b9578251825591602001919060010190610522565b5b808211156104c5576000815560010161053e565b60006020828403121561056457600080fd5b813567ffffffffffffffff8082111561057c57600080fd5b818401915084601f83011261059057600080fd5b8135818111156105a2576105a2610716565b604051601f8201601f19908116603f011681019083821181831017156105ca576105ca610716565b816040528281528760208487010111156105e357600080fd5b826020860160208301376000928101602001929092525095945050505050565b6000815180845260005b818110156106295760208185018101518683018201520161060d565b8181111561063b576000602083870101525b50601f01601f19169290920160200192915050565b6020815260006106636020830184610603565b9392505050565b60408152600061067d6040830185610603565b828103602084015261068f8185610603565b95945050505050565b6060815260006106ab6060830186610603565b82810360208401526106bd8186610603565b905082810360408401526106d18185610603565b9695505050505050565b600181811c908216806106ef57607f821691505b6020821081141561071057634e487b7160e01b600052602260045260246000fd5b50919050565b634e487b7160e01b600052604160045260246000fdfe4368616e67696e67206772656574696e672066726f6d202725732720746f2027257327a2646970667358221220efa9da9513463fb0149fab0d1ef157aa004236b24145fb9b4dbc6d03358758bb64736f6c634300080700334465706c6f79696e67206120477265657465722077697468206772656574696e673a",
  "linkReferences": {},
  "deployedLinkReferences": {}
}